:020000020000FC
:020000007EC0C0
:10001C0000C00F930FB70F93059100938800E8353C
:10002C0021F4F33011F4E8E5F2E006E00093B200BD
:10003C000F910FBF0F9118952098289A0895289822
:10004C00209A0895189BFECF08951899FECF089515
:10005C0022982A9A08952A98229A08951A9BFECFDC
:10006C0008951A99FECF089518E023B12570253014
:10007C00E1F31A9B07C00894079529D0ECDFE2DF67
:10008C00E7DF06C08894079522D0D9DFE7DFD4DFFD
:10009C001A9559F7D1DFDCDF089518E0069548F47E
:1000AC00CEDF15D0DEDF13D0C7DF11D0D7DF0FD0F6
:1000BC0008C0D1DF0CD0C9DF0AD0CADF08D0C2DF3C
:1000CC0006D006951A9559F7B7DFC2DF089523E0DD
:1000DC002A9500000000000000000000C9F70895F8
:1000EC00002411240A94F1F71A94E1F70A95D1F738
:1000FC0008950FEF0DBF07E007B908B9239A569A78
:10010C00559A2B9A219A00918000016800938000E7
:10011C0009E00093810000E00093B00001E000933F
:10012C00B10002E00093700000E20093B300E8E538
:10013C00F2E082DF8DDF789423B125702530E1F376
:10014C0093DF0093B3002B985E9AF6CFE7B881A5A6
:10015C00D0CCC30932E009F40EC23FD9144B2E1E89
:10016C004BA014CA1AA2A567E978BF13CFC717F121
:10017C00C7A1702E0115FED2D9E86F1E838E2AEC12
:10018C00087EF54586CF367338A189C0F2A865E1A3
:10019C009A84229CC6BED01D8301090712C24A64F0
:1001AC00255ABC457A9D346DB06795430C0961079F
:1001BC001B18655EDB95DAF0BAD3DD369853987B65
:1001CC00FCEA822945D80D7D16898C11B0DFA47C00
:1001DC005C60B0A4D7CDA2CE34F86DB8699DECDCD0
:1001EC003CEC9FE01490017933D8546D0A4286A8F8
:1001FC0078C1D8EFF4E0255BD94154D533CD8FAB22
:10020C00595CB26E28CFEBAB8F542BDF9F59E4E4D3
:10021C00DDEA8E29154FFD56A54B91A480BBE170EC
:10022C00559903B740B63F2B95C0C2C35D562E0DF2
:10023C0019E4A2594FDDAAA0ABEB66AF0EF06CFE31
:10024C00B68608EAC0D5EC974C01041080838689E9
:10025C008C8F9295989C9FA2A5A8ABAEB0B3B6B963
:10026C00BCBFC1C4C7C9CCCED1D3D5D8DADCDEE093
:10027C00E2E4E6E8EAECEDEFF0F2F3F5F6F7F8F984
:10028C00FAFBFCFCFDFEFEFFFFFFFFFFFFFFFFFF85
:10029C00FFFFFEFEFDFCFCFBFAF9F8F7F6F5F3F2B6
:1002AC00F0EFEDECEAE8E6E4E2E0DEDCDAD8D5D318
:1002BC00D1CECCC9C7C4C1BFBCB9B6B3B0AEABA864
:1002CC00A5A29F9C9895928F8C898683807C797649
:1002DC0073706D6A6763605D5A5754514F4C494651
:1002EC0043403E3B383633312E2C2A272523211F01
:1002FC001D1B1917151312100F0D0C0A09080706F0
:10030C0005040303020101000000000000000000CE
:10031C00000001010203030405060708090A0C0D7D
:10032C000F1012131517191B1D1F212325272A2CFB
:10033C002E313336383B3E404346494C4F5154578F
:0C034C005A5D6063676A6D707376797C9F
:00000001FF
