:020000020000FC
:107C000008E00EBF0FEF0DBF239A569A559A5D9A62
:107C100017D022D0EE27FF27B1E0A0E023B12570D6
:107C20002530E1F325D00D93B130C1F7A038B1F77D
:107C3000D1E0C0E059D0F0CF5D985E9A0C9400007E
:107C40002098289A08952898209A0895189BFECF86
:107C500008951899FECF089522982A9A08952A988F
:107C6000229A08951A9BFECF08951A99FECF08957F
:107C700018E023B125702530E1F31A9B07C0089462
:107C8000079529D0ECDFE2DFE7DF06C0889407958F
:107C900022D0D9DFE7DFD4DF1A9559F7D1DFDCDF57
:107CA000089518E0069548F4CEDF15D0DEDF13D036
:107CB000C7DF11D0D7DF0FD008C0D1DF0CD0C9DFAC
:107CC0000AD0CADF08D0C2DF06D006951A9559F748
:107CD000B7DFC2DF089523E02A950000000000000E
:107CE00000000000C9F7089543E00E94A23E41E170
:107CF0000E94A23E80E890E05D985E982B9AFCCFAF
:107D00000990199041E00E94A23E32960297C1F775
:107D1000E058F04045E00E94A23E41E10E94A23EB0
:107D200080E890E0C058D0400590199001100C9464
:107D30007C3E0197C9F707B706FF089541E10E940D
:107D4000A23EF9CF07B700FDFDCF1FB7F894F99910
:0A7D5000FECF47BFE8951FBF08955E
:00000001FF
